:1000000080280020AD1F00003B5A0000DD1F0000CB
:10001000DD1F0000DD1F0000DD1F000000000000EC
:10002000000000000000000000000000091F0000A8
:10003000DD1F000000000000B11E00005D1900007F
:100040006D1F00006D1F00006D1F00006D1F000080
:100050006D1F00006D1F00006D1F00006D1F000070
:100060006D1F00006D1F00006D1F00006D1F000060
:100070006D1F00006D1F00006D1F00006D1F000050
:100080006D1F00006D1F00006D1F00006D1F000040
:100090006D1F00006D1F00006D1F00006D1F000030
:1000A0006D1F00006D1F00006D1F00006D1F000020
:1000B0006D1F00006D1F00006D1F00006D1F000010
:1000C0006D1F00006D1F00006D1F00006D1F000000
:0C00D0006D1F00006D1F00006D1F000080
:1000DC0053B94AB9002908BF00281CBF4FF0FF31A3
:1000EC004FF0FF3000F06CB9ADF1080C6DE904CEA7
:1000FC0000F006F8DDF804E0DDE9022304B07047F7
:10010C002DE9F047089E0D4604468E46002B40F024
:10011C0082808A42174646D9B2FA82F24AB1C2F1BB
:10012C00200105FA02F320FA01F1974041EA030E8F
:10013C0094404FEA1748230CBEFBF8FCB9B208FBFD
:10014C001CEE43EA0E430CFB01F098420AD9FB1853
:10015C000CF1FF3580F01681984240F21381ACF11E
:10016C00020C3B441B1AA4B2B3FBF8F008FB10338F
:10017C0044EA034400FB01F1A14209D93C1900F106
:10018C00FF3380F00181A14240F2FE8002383C44F2
:10019C00641A40EA0C4000211EB1D4400023C6E989
:1001AC000043BDE8F08702B9FFDEB2FA82F2002A02
:1001BC004FD1CB1B4FEA174E1FFA87F80121B3FB27
:1001CC00FEFC250C0EFB1C3345EA034508FB0CF327
:1001DC00AB4207D97D190CF1FF3002D2AB4200F2D1
:1001EC00E7808446ED1AA3B2B5FBFEF00EFB10556A
:1001FC0043EA054408FB00F8A04507D93C1900F177
:10020C00FF3302D2A04500F2D7801846A4EB0804B5
:10021C0040EA0C40C0E78B4208D9002E00F0AF80BA
:10022C000021C6E900050846BDE8F087B3FA83F162
:10023C0000294BD1AB4202D3824200F2B780841A20
:10024C0065EB030301209E46002EAAD0C6E9004EA2
:10025C00A7E7C2F1200C01FA02F3974020FA0CF048
:10026C004FEA174E21FA0CFC1843BCFBFEF1050CAF
:10027C000EFB11CC1FFA87F845EA0C4501FB08F37D
:10028C00AB4204FA02F409D97D1901F1FF3C80F06C
:10029C008B80AB4240F2888002393D44EB1A85B228
:1002AC00B3FBFEF00EFB103345EA034500FB08F3ED
:1002BC00AB4207D97D1900F1FF3C71D2AB426FD92B
:1002CC0002383D44EB1A40EA014178E7C1F1200CB9
:1002DC008B4022FA0CF71F4320FA0CF405FA01F3B9
:1002EC004FEA174E25FA0CF51C43230CB5FBFEF90F
:1002FC001FFA87F80EFB195543EA054509FB08FA66
:10030C00AA4502FA01F200FA01F308D97D1909F1A4
:10031C00FF3047D2AA4545D9A9F102093D44A5EBC6
:10032C000A05A4B2B5FBFEF00EFB105544EA0544D9
:10033C0000FB08F8A04507D93C1900F1FF352DD278
:10034C00A0452BD902383C4440EA0940A4EB0804F0
:10035C00A0FB02894C45C6464D4619D316D05EB15A
:10036C00B3EB0E0264EB050404FA0CFCCA404CEA35
:10037C000202CC40C6E900240021BDE8F0873146DA
:10038C0030460EE7AC46EDE6184601E74345E6D2AB
:10039C00B8EB020E69EB07050138E0E72846D3E716
:1003AC0060468FE78146BAE7614677E708464BE738
:1003BC00ACF1020C3D4415E702383C4426E700BF83
:1003CC00704700BF08B501F0DDFBBDE808400146F1
:1003DC00014805F080B900BF245F000002F4C0435F
:1003EC00B3F5C04F2DE9F047D0E901A8D0F80C9037
:1003FC0005460E4614465FD13749384A38484FF403
:10040C00F57305F068F9374805F065F94FF4F571A7
:10041C00324805F06BFA04F4E823B3F5C82F0ED17B
:10042C0031492E4A2E4840F2F11305F054F92F4869
:10043C0005F051F9294840F2F11105F057FA04F48E
:10044C00C823B3F5804F0ED12949244A24484FF4D0
:10045C00FC7305F040F9274805F03DF91F484FF4AF
:10046C00FC7105F043FADAF800300127B7401F425F
:10047C000ED12149194A1A484FF4FF7305F02BF994
:10048C001E4805F028F915484FF4FF7105F02EFAB7
:10049C00230405D5D9F800301F4218BF84F4C024BA
:1004AC00D8F8187004F4C02304F4B032314628464E
:1004BC00BC46BDE8F0476047002BACD11049074A59
:1004CC0007484FF4F77305F006F90E4805F003F9E9
:1004DC004FF4F7719CE700BF645F00003A5F0000C7
:1004EC00A55F0000C25F000043600000C460000014
:1004FC001861000062610000A7610000E561000066
:10050C00EE5F00001860000001232DE9F04103FAB2
:10051C0001F54368C6681B681D42044688461746A9
:10052C000ED10F490F4A10484FF4117305F0D3F850
:10053C000E4805F0D0F80B484FF4117105F0D6F9C0
:10054C00A3683A461B6841462046984728B9336849
:10055C00FA074CBF2B43AB433360BDE8F08100BFBF
:10056C00A76100003A5F0000A55F0000E561000094
:10057C0043682DE9F0411B68C76801258D401D4279
:10058C00044616460ED11949194A1A4840F2EA3364
:10059C0005F0A1F8184805F09EF8154840F2EA312C
:1005AC0005F0A4F93B681D4263681B681CBFB6FAD2
:1005BC0086F676091D420ED10C490D4A0D484FF4B2
:1005CC00707305F088F80C4805F085F808484FF46E
:1005DC00707105F08BF936B1A368DB6829462046AB
:1005EC00BDE8F0411847A3681B69F7E7A761000055
:1005FC003A5F0000A55F0000E5610000F8B50C480B
:10060C000C4E0D4F0D4D05F066F801242146304679
:10061C0005F061F8092C04DD2146384605F05BF83D
:10062C000024642005F01EF8012301342B70EDE743
:10063C00F76100001762000037620000AF0700206E
:10064C0010B5064C22783AB98368DB6898470448A1
:10065C0005F041F80123237010BD00BFAC0700204A
:10066C00576200002DE9F341364803F00BF90446BC
:10067C0030B93449344805F02EF802B0BDE8F081A9
:10068C000D2140F21112FFF73FFF014628B12D4A10
:10069C002E480D2305F01FF8EFE70D214FF4B8227B
:1006AC002046FFF79BFE014618B1264A28480D2329
:1006BC00F0E72849284B4B604FF400538B60A3683C
:1006CC00DB6913B10122204698472448244D254E5E
:1006DC00254F05F000F863681B689A040ED4314668
:1006EC0040F29E332A46384604F0F5FF1F4804F0CA
:1006FC00F2FF40F29E31284605F0F8F8D4F80C8051
:10070C00A36801A95B682046984728B9D8F800204F
:10071C00019B53409B040CD5154B16491A7862B1BA
:10072C00002215480A701A7004F0D5FFFA2004F064
:10073C0099FF322004F096FFCDE701220F480A7092
:10074C001A70F1E7866200008D620000AB62000057
:10075C00D4620000D0050020D10300000A63000021
:10076C003A5F0000A7610000A55F0000E561000092
:10077C001D0000201C0000202163000031630000DC
:10078C0070B50E480E4E03F07DF840F20122112197
:10079C000546FFF7B9FE0B4804F09DFF0024013419
:1007AC0004F0010248BF524211212846FFF7E0FE37
:1007BC00642004F057FF01233370F0E786620000D9
:1007CC00AD070020416300002DE9F8431448154F94
:1007DC00DFF8588003F056F840F20122122105464A
:1007EC00FFF792FE104804F076FF00243B7893B19B
:1007FC00013404F0010248BF524212212846FFF78F
:10080C00B7FE08264FF00109642004F02BFF013ECF
:10081C0088F80090F8D1642004F024FFE6E700BFCC
:10082C00866200001C00002058630000AE07002008
:10083C002DE9FF414FF080433948D3F8004404F0D0
:10084C004AFF9CB9374804F046FF4FF080434FF005
:10085C00FF32C3F80024344803F014F80446B0B94E
:10086C00324804F038FF04B0BDE8F081E10702D54E
:10087C002F4804F030FFA20702D52E4804F02BFFBE
:10088C006307E2D52C4804F026FF2C48DBE7022353
:10089C004FF4FA712A488DF80C300026CDE900612E
:1008AC0004F019FF274B0293A36869469B68204606
:1008BC00984710F1230F054606D1A36802969B6852
:1008CC006946204698470546002D01DA1E48C8E7C0
:1008DC00A36800211B6820469847002801DA1B48B2
:1008EC00BFE71B48DFF874801A4F1B4E04F0F3FE71
:1008FC00322004F0B7FE98F80030002BF8D03B788B
:10090C00002BF5D03378002BF2D0A3682946DB6896
:10091C0020469847002388F800303B703370E7E797
:10092C006F6300007E630000DB630000DF63000088
:10093C008663000098630000AE630000C56300008E
:10094C00F66300004D0600000A64000022640000FB
:10095C0038640000AE070020AF070020AD07002070
:10096C0038B54468816004F00304032C054602D0BA
:10097C002CB1002000E0006800236B6038BD054AF4
:10098C0005490648452304F0A6FE0248452104F01B
:10099C00ADFFEEE78C6400007A740000A55F0000E8
:1009AC002DE9F04F87B00F461946109B9DF844B0C7
:1009BC009DF848A01F4C06461425104698464FEA51
:1009CC00E37950EA010319D1142D139C14BF01359E
:1009DC0030232C4408BF8DF81430152C1BD0153C3B
:1009EC00002C1ADC1DF8050039460135B047152DD1
:1009FC00F8D1002C19DC07B0BDE8F08F42464B460D
:100A0C00FFF766FBA25C0DF8052084460B4660469A
:100A1C001946013DD5E70024E4E7BBF1000FE1D016
:100A2C0039465046B047013CDAE739465046B047A4
:100A3C00013CDEE7AF6400000B6801330B60014B37
:100A4C001B68184700000020014B1860704700BF5E
:100A5C00000000202DE9F04F002687B005468B469C
:100A6C001C4602F1FF3A4FF0FF3837464FF00009B1
:100A7C0007E0B9F1000F0BD1252800F00A81594687
:100A8C00A8471AF8010F0028F3D107B0BDE8F08F82
:100A9C007A280AD8622810D8302851D044D8252872
:100AAC0000F0F5802D2800F0FB8059462520A84742
:100ABC009AF800005946A847D8E7A0F16303172B12
:100ACC00F3D801A252F823F0930C0000950B000010
:100ADC00B70A0000B70A0000B70A0000770B000045
:100AEC00950B0000B70A0000B70A0000770B000056
:100AFC00B70A0000B70A0000B70A00000F0C00008C
:100B0C00B70A0000B70A00005B0C0000B70A00002F
:100B1C00950B0000B70A0000B70A00003D0B00005F
:100B2C00B70A0000770B0000392815D95828BCD11A
:100B3C009AF80030702B6ED154F8042B002375E01A
:100B4C00B8F1000F0BDA002F00F0AC80A0F13008E8
:100B5C00002F08BF022794E7B8F1000FF6DB0A2339
:100B6C0003FB0808A8F13008F2E7682803D1682EC7
:100B7C0006D1482685E76C2802D16C2E00F09480B3
:100B8C00002E92D106467CE77A2E06D1A14659F862
:100B9C00042BD317752823D10FE06C2EF6D04C2ED6
:100BAC0005D1073424F00709F9E80223F2E7752888
:100BBC00226804F1040912D10023F81E18BF012089
:100BCC00012F0CBF3024202401900A20CDE90248CB
:100BDC00009059462846FFF7E3FE4C4646E7D317EC
:100BEC00002A73F10001E8DA59462D20CDE90423DF
:100BFC00A847DDE90423524263EB430308F1FF38B5
:100C0C00DBE759463020A84759467820A8474FF0D3
:100C1C00080801278CE76C2E8ED04C2E8CD1E31D4E
:100C2C0023F007031C465B6854F8082BF81E18BF0A
:100C3C000120012F0CBF30212021CDE902181021F9
:100C4C000190009128465946FFF7AAFE0EE754F88A
:100C5C00043B99464A4619F8010B78B9032F25D164
:100C6C00A2EB0309A8EB0909B9F1000F7FF7FEAE5F
:100C7C0059462020A84709F1FF39F5E75946049356
:100C8C00A847049BE6E754F8040B594613E759466A
:100C9C0011E74E464F464FF0FF384FF00109F0E692
:100CAC000327EEE60127ECE64C26EAE68146E8E669
:100CBC0007B50B46002102460191034801A9FFF735
:100CCC00C9FE03B05DF804FB450A000030B585B0E1
:100CDC00CDE90101044600250548039501A9FFF75C
:100CEC00B9FEDDE902309842B8BF255405B030BDDD
:100CFC00BD5600002DE9F04FB0F81C9085B019F0EE
:100D0C00080F0446039222D001290CBF49F01009A8
:100D1C0049F02009A0F81C901434204604F03CF94A
:100D2C0068B99F4A9F49A048842304F0D4FC9F488B
:100D3C00214604F0D0FC9A48842104F0D7FD039B93
:100D4C0083F31188BFF36F8F05B0BDE8F08F984F18
:100D5C00DFF8548209F00709022906D1204604F075
:100D6C00D4FC0028D8D0012868D1D4F818B0A38BB3
:100D7C00BBF1000F0ADA0026256823F00703C4E94B
:100D8C00006643F00103A383019627E003F00702FA
:100D9C00511F012934D8002123F00703062A2568A6
:100DAC009BB2C4E900110CD18D422A4638BF0A46C9
:100DBC002AB1E18B12680131E183002AF8D143F0AA
:100DCC000203A383204604F0A0FC06460028DBD0D7
:100DDC00A38B43F02003A38300230193A38B03F085
:100DEC0007024A45029203D0A268002A40F0F08024
:100DFC001DB9019A002A00F036814FF00009E9E094
:100E0C00042A0ED123F007039AB2A283204604F0E1
:100E1C007CFC054618B142F02002A2830025019506
:100E2C00DCE74046634940F219133A4604F053FCA0
:100E3C0040F21911384604F059FDEFE7032835D17B
:100E4C00B9F1000F0BD05C4940464FF4AA733A46F7
:100E5C0004F041FC4FF4AA71384604F047FD2368B6
:100E6C005BB95649404640F255133A4604F033FC00
:100E7C0040F25511384604F039FD23691B68019383
:100E8C005BB94F4940464FF4AC733A4604F023FC2F
:100E9C004FF4AC71384604F029FDA38B23F0070303
:100EAC0043F00603A3830025AB4697E7042832D111
:100EBC00B9F1020F0BD04349404640F25B133A465E
:100ECC0004F009FC40F25B11384604F00FFDE38B93
:100EDC005BB13D4940464FF4AE733A4604F0FBFB20
:100EEC004FF4AE71384604F001FD23695B68019341
:100EFC005BB93349404640F25F133A4604F0EBFBD2
:100F0C0040F25F11384604F0F1FCA38B23F0070389
:100F1C0043F00403C6E7052832D1B9F1010F0BD019
:100F2C002A4940464FF4B1733A4604F0D4FB4FF4CF
:100F3C00B171384604F0DAFC23685BB91F494046AE
:100F4C0040F263133A4604F0C6FB40F26311384694
:100F5C0004F0CCFC23699B6801935BB918494046AB
:100F6C004FF4B3733A4604F0B6FB4FF4B371384602
:100F7C0004F0BCFCA38B23F0070343F0050391E7BB
:100F8C000C4940F269133A46404604F0A4FB002594
:100F9C0040F26911384604F0A9FC019584E700BFC2
:100FAC006265000081650000A55F00009865000087
:100FBC00C06400007A740000E2640000ED6400007C
:100FCC0010650000276500003D6500004C650000C1
:100FDC004FF0010943F0080304F1140AA3835046AF
:100FEC0003F0DAFF68B93A4A3A498423404604F0E0
:100FFC0072FB3948514604F06EFB3548842104F0ED
:10100C0075FC039B83F31188BFF36F8FB9F1000F4D
:10101C0038D1002D4BD1019B13B130492046984754
:10102C004FF02003EFF3118B83F31188BFF36F8F15
:10103C005046CDF80CB003F0A1FF68B9244A2849FA
:10104C005C23404604F047FB2648514604F043FB22
:10105C001F485C2104F04AFC504603F0ADFFA38B03
:10106C0023F00803A383A38BDA0628D523F01003FF
:10107C00A3830121B4F81C9009F0070900297FF41F
:10108C006BAE49E6A1680029C3D00B68029A002B0D
:10109C0038BF002399464B6820461E465B46B04736
:1010AC00B9F1000FB5D0D9F800304946EEE7294622
:1010BC00029A2D685B46204604F043FBA9E713F027
:1010CC0020011EBF23F02003A3830221D2E700BF1F
:1010DC00626500008165000098650000F510000055
:1010EC00AD650000C2650000F8B504460D4600F180
:1010FC0014064FF02003EFF3118783F31188BFF32D
:10110C006F8F304603F03AFF68B90C4A0C490D4812
:10111C005C2304F0E0FA0C48314604F0DCFA074892
:10112C005C2104F0E3FB304603F046FFA5613A4630
:10113C0020460121BDE8F840FFF7DCBD62650000E8
:10114C00AD650000A55F0000C26500002DE9F04709
:10115C0004460F4604F00BFB051E5EDB04F114097C
:10116C004FF02003EFF3118A83F31188BFF36F8FD5
:10117C00484603F003FF68B9384A394939485C23BB
:10118C0004F0A9FA3848494604F0A5FA33485C2122
:10119C0004F0ACFB484603F00FFFE38BA28B4FF639
:1011AC00FF718B4202F0070650D0022E24D101337E
:1011BC00E38335464FF00108484603F0EDFE68B96D
:1011CC00264A2A492748842304F085FA28484946A8
:1011DC0004F081FA2148842104F088FB8AF31188F9
:1011EC00BFF36F8FB8F1000F17D00023324639468A
:1011FC00204604F0A6FA10E0930701D0062E0FD17A
:10120C0000233B606368F3B9C4E900773546FEB947
:10121C00524602212046FFF76DFD2846BDE8F087B7
:10122C00052E18D0012E0BD012490E48124A40F24E
:10123C00C51304F050FA104840F2C51104F056FBE7
:10124C006FF0040504E01F606760DFE76FF00A05CC
:10125C004FF00008B0E76FF02205F9E76265000077
:10126C00AD650000A55F0000C2650000816500004F
:10127C00986500004C650000C0640000B2F5802F3A
:10128C00F8B507460D46164612D2042A0ED8434925
:10129C00434A44484FF4977304F01DFA424804F053
:1012AC001AFA3F484FF4977104F020FB042200E037
:1012BC000822B61AEC1D354424F0070425F0070566
:1012CC002D1B172D4FEAD5060ED83849344A354810
:1012DC0040F2371304F0FFF9334804F0FCF93048BE
:1012EC0040F2371104F002FB002200233C60C4E9F9
:1012FC0000230023E3603146A660204604F0A5FAE3
:10130C0001218500471C204604F095FA1B35ED0899
:10131C002844B0420ED32649214A224840F24313B6
:10132C0004F0D9F9204804F0D6F91D4840F24311D5
:10133C0004F0DCFA002304F110021946BB4229DB4D
:10134C002A462046002104F072FA771B204601221F
:10135C00002104F054FA3A46294604F068FA2B4668
:10136C0029462046002204F039FA31462046002254
:10137C0004F05DFA3B4631462046002204F02EFA7A
:10138C0031462046012204F03AFA2946BDE8F840DD
:10139C0004F067BA42F8041B0133CFE7A6660000DD
:1013AC00DA650000A55F0000C7660000E06600007B
:1013BC000867000010B50748074C02F063FA074BAA
:1013CC001860204601F09CF92046FFF73DFB0020F9
:1013DC0010BD00BF37670000ED130000DC050020D6
:1013EC000A2838B5074D044604D1286883680D21B6
:1013FC005B68984728688368E1B25B689847204629
:10140C0038BD00BFDC0500202DE9F0410E4C051B5A
:10141C00C5F347130C255D43074605F148000E46FE
:10142C002044402104F06AFA011E08DB074B2C44CF
:10143C00C4E91036064B5B59BDE8F04118473846F5
:10144C003346BDE8F0411847F00500206B59000009
:10145C004C5E000038B5CCB2012C054609D90949BF
:10146C0009480A4A7D2304F036F908487D2104F026
:10147C003DFAEB680C2104FB0134A06C00F0070072
:10148C0038BD00BF7B670000A55F00003E67000011
:10149C00F8B5CCB2012CC768054616460BD91949CC
:1014AC0019481A4A40F2451304F015F9174840F24E
:1014BC00451104F01BFA4FF02003EFF3118283F374
:1014CC001188BFF36F8F0C2303FB0471896C11F02F
:1014DC00C00101D08E4211D103FB04730121996428
:1014EC00002082F31188BFF36F8F30B969680C2329
:1014FC0003FB0414636898470020F8BD4FF0FF30DD
:10150C00EFE700BF7B670000A55F00003E670000AF
:10151C0070B50D460649411A04464911054840224A
:10152C00FFF7B6FF2B4601462046BDE87040184732
:10153C00F005002020000020002270B50121044697
:10154C00104600F0DBFB002000F0BAFB0F4801F066
:10155C00FBFE0F4B984215D101F01AFFE6680D49BE
:10156C00304604F013F900280BDB0125B564E46860
:10157C00084904F1200004F009F9002801DB656535
:10158C00002070BD6FF00400FBE700BFD915000010
:10159C000000AD0B645E000001460C2309484B4370
:1015AC0070B5C418D4E9105600224833226418448C
:1015BC0004F0C2F92DB132462B460348BDE8704009
:1015CC00184770BDF005002020000020012808B548
:1015DC0006D0032808D0A8B9104B9B6C5B071BD115
:1015EC00BDE80840FFF7D8BF0D490E4A0E4840F23F
:1015FC00562304F070F840F25621BDE80840094823
:10160C0004F074B90649074A074840F25A2304F01B
:10161C0062F840F25A21F0E708BD00BFF005002047
:10162C007A7400003E670000A55F000008B54FF01B
:10163C002003EFF3118183F31188BFF36F8F124AEC
:10164C00136843F0020013F0010310600CD04FF04C
:10165C008042D2F80C34D2F80C2413F0010303D0DE
:10166C000A4804F069F9012381F31188BFF36F8FE5
:10167C0023B1BDE808400020FFF78EBFBDE808404D
:10168C00012001F0A5BE00BF48060020380600204E
:10169C0010B5074C23782BB94FF4A57004F0D1FA90
:1016AC0001232370BDE81040002001F091BE00BF63
:1016BC00B0070020094BBFF35B8F53E8002F22F0DB
:1016CC00020143E800100028F7D1BFF35B8FD3076A
:1016DC0002D4012001F0EABE704700BF480600208A
:1016EC0010B588B000230122CDE906320193094BD5
:1016FC0004AC01AACDE90444CDE9023404F03EF96E
:10170C00002805DB4FF480420023204603F0AAFAA0
:10171C0008B010BD7D5900002DE9F8434949BFF3CD
:10172C005B8F0546012251E8003F41E8002000286C
:10173C00F9D1BFF35B8FA3B9434944484B60CB60ED
:10174C008A60FFF703FD00280BDA41494148424A01
:10175C0040F2212303F0BFFF3F4840F2212104F067
:10176C00C5F8ADB36B1E012B56D8012D07D14FF028
:10177C008043D3F81C3403F00303012B28D004F06E
:10178C005AFA044618B9354B1B78002B52D14FF03E
:10179C002003EFF3118683F31188BFF36F8F0124BD
:1017AC002F4FDFF8C480DFF8C4904FF08042D2F89E
:1017BC001834D2F81824D2030CD503F00303012BF0
:1017CC0001D0012D06D10CB386F31188BFF36F8FB6
:1017DC00BDE8F883ACB1304600F0B4FB4FF080426A
:1017EC00D2F81835002BE0D139680029DDD03B60E8
:1017FC003B680123C2F81835C8F88031C9F80030AD
:10180C00D3E70021212003F0B1F9E7E74FF0804343
:10181C000222C3F80423DBE712490E480E4A40F2B9
:10182C00332303F058FFBDE8F8430B4840F2332153
:10183C0004F05CB84FF080430222C3F8082306463C
:10184C00AEE700BF4C060020E0050020100600208B
:10185C009F670000A55F00003E670000C30B0020DF
:10186C00040100407A74000000E100E00800004030
:10187C0037B50B7B022B04460D4628D10B681BBBDE
:10188C00C2684B6892F82410D9B91449581E884282
:10189C001AD8136260680DF1070101F035FF104B87
:1018AC00984217D0AB689DF8070013B1E26842F874
:1018BC002030E26892F82430013382F8243003B0EF
:1018CC0030BD126A9A42E5D06FF01500F7E76FF061
:1018DC002200F4E76FF00B00F1E700BFFEFFCF072B
:1018EC000200AD0B10B5044600220121102000F0BF
:1018FC0005FA6068054A00F1080101F079FE044B15
:10190C00984214BF6FF00F00002010BD2119000089
:10191C000000AD0BF8B50B4D0B4E0C4F002495F899
:10192C0024309C4200DBF8BDD6F80434E340DB07DE
:10193C0005D555F8243013B1214638469847013463
:10194C00EDE700BF500600200000014030000020F1
:10195C0010B5064C064907482246172303F0BBFE78
:10196C0020461721BDE8104003F0C0BFD16700002E
:10197C007A740000A55F0000821C084B22F07F42A5
:10198C00C3F84025D3F80425904200D17047D3F812
:10199C000405821C22F07F42F2E700BF00100140D8
:1019AC00074B00221A601B68064A074BD3F8400508
:1019BC001368C01A20F07F400344136003F00ABD83
:1019CC0040110140780600200010014038B5104D40
:1019DC00104B0024C5F808451C601B680E4B4FF4D7
:1019EC000032C3F880214FF48033C5F8043322460B
:1019FC000121112000F082F9112000F061F9074A51
:101A0C000123136002202B60FFF786FE204638BDB1
:101A1C00001001404011014000E100E008100140BD
:101A2C00F8B52B4B2B4C1968D4F804252A4D521AB7
:101A3C00B0F1FF3F08BF284622F07F43120236D494
:101A4C00013820EAE070A842A8BF284601331844A8
:101A5C00A84294BF0D184D194FF48031C4F80813E7
:101A6C00D4F80425D4F840351C4E00279B1A376057
:101A7C0023F07F433068012B22F07F40C4F84005EF
:101A8C00C4F8441304D10F2004F0DBF8376033683A
:101A9C00134B4FF40032C3F88021D4F804052B1AF1
:101AAC0023F07F43012B04D1FFF766FF0BE00020EE
:101ABC00CCE725F07F43C4F84035D4F804052D1A43
:101ACC00023D2B02F0D44FF48033C4F80433F8BD3C
:101ADC007806002000100140FFFF7F0040110140FC
:101AEC0000E100E038B54FF02003EFF3118583F3EC
:101AFC001188BFF36F8F1A4803F040FA68B9194A7E
:101B0C0019491A485C2303F0E6FD1549184803F0FF
:101B1C00E2FD14485C2103F0E9FE114803F04CFA95
:101B2C00144B0F48D3F80445134B1B68E41A24F0EC
:101B3C007F4403F031FA68B90A4A10490B488423F0
:101B4C0003F0C9FD06490E4803F0C5FD0548842184
:101B5C0003F0CCFE85F31188BFF36F8F204638BDA0
:101B6C007C06002062650000AD650000A55F0000EA
:101B7C00C26500000010014078060020816500005D
:101B8C009865000038B54FF02003EFF3118583F30F
:101B9C001188BFF36F8F1B4803F0F0F968B91A4A2C
:101BAC001A491B485C2303F096FD1649194803F0AB
:101BBC0092FD15485C2103F099FE124803F0FCF9E4
:101BCC00154B1048D3F80445144B1B68E41A24F049
:101BDC007F441C4403F0E0F968B90B4A10490C48E7
:101BEC00842303F078FD07490E4803F074FD064882
:101BFC00842103F07BFE85F31188BFF36F8F2046A1
:101C0C0038BD00BF7C06002062650000AD65000099
:101C1C00A55F0000C265000000100140780600209E
:101C2C00816500009865000010B5114C114AA26145
:101C3C000323C4E90433104BE36122664FF4806341
:101C4C000E4A0F492362626600231022E01DA36234
:101C5C006362E3622367E3666367A26603F0EEFEEA
:101C6C000849204603F0EAFE2023A37110BD00BFF3
:101C7C00800600200D680000C1070020B10700207D
:101C8C00166800001A6800000A4A0B499368096834
:101C9C00C3F89C100949C3F898004B6843F0805373
:101CAC004B60002383F31188BFF36F8F9368D3F8D5
:101CBC009C007047600700200C5F000000ED00E006
:101CCC0043B2002B08DB012200F01F0002FA00F0E7
:101CDC005B09024A42F82300704700BF00E100E0B4
:101CEC00054B420900F01F0053F82220012303FA90
:101CFC0000F01040704700BF00E100E070B54C1CD4
:101D0C00072C05460E460ED9104A114911485B2383
:101D1C0003F0E1FC10483146072203F0DCFC0B48D1
:101D2C005B2103F0E3FD6BB2002BACBF03F160430E
:101D3C000A4B4FEA4414B8BF05F00F05E4B2AABF32
:101D4C0003F561435C5583F8004370BD21680000C6
:101D5C0057680000A55F00007268000014ED00E0F9
:101D6C0042F8203C009B42F81C3C0A49019B42F87B
:101D7C00183C029B42F8143C21F001014FF0807397
:101D8C0042F8043C42F8081C0023203A8265C0F853
:101D9C0098307047BF5700000C4A0346906898B1C2
:101DAC0013F1160FD0F8880005D0A0F120029A424A
:101DBC0006D8834204D281422CBF0021012100E0CD
:101DCC000021002908BF0020704700BF60070020D9
:101DDC0008B504460E46154600F048FB084B204655
:101DEC009C6000F05FFB284686F30988002163B6EF
:101DFC0081F31188BFF36F8F0022002303F0D9FC0D
:101E0C006007002037B505460C46C9B18B680093B6
:101E1C00D1E900230E48452103F05DFC6369009372
:101E2C00D4E903230B48452103F055FCE2690A4829
:101E3C00452103F050FCA2690848452103F04BFCF6
:101E4C002146284603B0BDE8304001F04FBD00BF2D
:101E5C00A7680000DB6800000F6900002369000020
:101E6C000E4A08B50E4B22F07F029A60BFF34F8FDB
:101E7C00BFF36F8FD3F8882022F47002C3F8882048
:101E8C00EFF3148323F0040383F3148801F0A4FD0F
:101E9C0001F0ACFD00F0B2FA01F0DAFD0000000038
:101EAC0000ED00E013498A684FF038001044EFF35E
:101EBC00098C80E8F01F202080F31188BFF36F8F0E
:101ECC000D4F4FF000664A6A8A603E60D2F8980067
:101EDC000023C2F8983080F3118804B5104600F046
:101EEC00E1FABDE8044002F1380090E8F01F8CF3F1
:101EFC00098870476007002004ED00E01EF0040F15
:101F0C000CBFEFF30880EFF30980816911F8021C14
:101F1C000229FFD001B503F086FD01BD0149102255
:101F2C000A60704710ED00E072B6404080F31188F3
:101F3C00BFF36F8FBFF34F8F30BF62B6BFF36F8F9E
:101F4C00704700BF72B6494081F3118820BF80F3FF
:101F5C00118862B6704700BF30BFFFF7FDBF00BFEE
:101F6C0001B572B60B4A106A00281EBF002111621F
:101F7C0003F030FE62B6EFF30580A0F110004FEADB
:101F8C00C0000549014409C99847BDE8014003490F
:101F9C000847000060070020C85C0000F11F00002B
:101FAC0003F0C6FD202080F3118808484FF402612D
:101FBC00401880F30988EFF314800221084380F362
:101FCC001488BFF36F8FFFF74BFF0000002A00202F
:101FDC00EFF30880EFF3098101B5724600F03CF98C
:101FEC0001BD00BF044B9968586A884203D003496D
:101FFC004FF080520A6070476007002004ED00E04B
:10200C002DE9F041354C06468846354845211546A4
:10201C0003F061FBA26AD70603D53248452103F0D1
:10202C005AFBA36A1C0703D52F48452103F053FB29
:10203C002A4CA36A98073ED545212C4803F04BFB4C
:10204C00676BA36A19060BD529483A46452103F05C
:10205C0042FBB8F1000F03D0A36A23F08003A36204
:10206C001E4CA26AD20703D52248452103F033FB4C
:10207C00A36A9B0603D52048452103F02CFB174B84
:10208C009C6A14F010040CD05C6814F4006408D042
:10209C0031463846FFF780FE044678B180F3098854
:1020AC0002240E4A936A43F0FF03936200232B70C1
:1020BC002046BDE8F0816FF01507D1E70F4A1049B3
:1020CC0010484FF49C7303F006FB0F4803F003FB1E
:1020DC000A484FF49C7103F009FCE2E700ED00E0C4
:1020EC005669000071690000A9690000C16900000F
:1020FC00DE690000F96900001D6A0000516A0000E9
:10210C007A740000A55F00008B6A000070B5234C48
:10211C0006460D462248452103F0DDFAA26AD10499
:10212C0003D52048452103F0D6FAA36A1A0503D536
:10213C001D48452103F0CFFA184CA36A9B0510D516
:10214C001A48452103F0C7FAA26BA36A180408D5F4
:10215C001748452103F0BFFA1EB1A36A23F40043CC
:10216C00A3620E4CA36A590503D51248452103F00E
:10217C00B2FAA36ADA050BD50F48452103F0ABFA86
:10218C00064A936A002043F47F439362287070BD23
:10219C00A36A9B04F4D509484521EFE700ED00E064
:1021AC00AE6A0000C96A0000A9690000DF6A00007D
:1021BC00FD6A0000176B0000376B00001D6A000001
:1021CC0010B51D4C1D48452103F085FAA26A9301F8
:1021DC0003D51B48452103F07EFAA36ADC0103D525
:1021EC001848452103F077FA134CA26A100303D563
:1021FC001548452103F06FFAA36A590303D5134818
:10220C00452103F068FA0C4CA26A920303D51048DE
:10221C00452103F060FAA36ADB0303D50D48452181
:10222C0003F059FA044A936A6FEA03436FEA1343C3
:10223C009362002010BD00BF00ED00E0546B000065
:10224C00716B0000896B0000A86B0000CB6B000069
:10225C00F56B0000146C00002DE9F041534BD3F8E2
:10226C0004808AB00D46C8F30807002686F311884F
:10227C00BFF36F8F02F07F43B3F17F4F07D102F0B2
:10228C000C03082B14D14A48452103F024FA494A7F
:10229C0049494A4840F2BB3303F01DFA484803F061
:1022AC001AFA444840F2BB3103F020FB002505E04C
:1022BC0012075CBF05460126002DE8D00023FA1E4C
:1022CC008DF807301C461346092B5CD8DFE803F069
:1022DC00055054345B5B5B5B5B583A48452103F01B
:1022EC00FAF9324B8DF80740DC6A14F0020405D081
:1022FC003548452103F0EFF9002420E0DB6A5B0050
:10230C001DD53248452103F0E6F9314B1B7833B12A
:10231C000DF1070201212846FFF772FE0EE02D4B4E
:10232C001B782BB10DF107010120FFF7EFFE05E043
:10233C00294B1B889BB213B1FFF742FF04469DF853
:10234C00073093B92022294602A803F0A0FB099B71
:10235C0036B3C3F3080222B96FEA53236FEA43235F
:10236C00099302A92046FFF74DFD0AB0BDE8F081A4
:10237C000DF107020021CEE70DF107010020D4E793
:10238C0016484521B6E71649164A174818F4F87F3F
:10239C0008BF0A46A7F11003452103F09CF9ABE7EF
:1023AC0023F4FF7323F00103DAE700BF00ED00E034
:1023BC00726C0000516A0000A26C0000A55F000066
:1023CC00B56C0000F36C00000F6D0000356D000063
:1023DC0028ED00E029ED00E02AED00E0596D000049
:1023EC00446C0000596C0000946D0000024A536963
:1023FC0043F010035361704700ED00E004480023E4
:10240C002021C2180133272B82F80013F9D1704711
:10241C0000E100E010B5044602F030F8114B9B6867
:10242C00A34207D1EFF3058383B10F4A536843F0FE
:10243C00805353604FF02003EFF3118083F3118826
:10244C00BFF36F8FBDE8104003F0C6BB4FF0200305
:10245C00EFF3118083F31188BFF36F8FFFF714FC38
:10246C00E8E700BF6007002000ED00E01FB5084B57
:10247C000193084B0293084B039301AB0093074A5B
:10248C00074B0121684600F0E1F805B05DF804FB4C
:10249C00000000200000000000000B0600000020DF
:1024AC00000001201FB5D0F88830203B0193064B6B
:1024BC002022CDE90223012101AB6846009300F0F4
:1024CC00EDF805B05DF804FB00000B15DFF898C0C3
:1024DC00F8B50646002710468F420FDA56F827E06B
:1024EC00DEF80440D4B383B1651E2C4207D01C48DF
:1024FC003A46452103F0EFF86FF01500F8BD1F2C9C
:10250C00F5D9DEF800201542F1D1202CC2B2DEF84C
:10251C000050DEF808000FD9B4F1004F0ED8013C82
:10252C00B4FA84F4C4F11F046400072A44EA0004DA
:10253C0006D90C484521DDE70824F6E73E24F4E7EC
:10254C0025F01F05154345F0100544F00104CCF8A7
:10255C000820501CCCF80C50CCF810400137BBE7CD
:10256C00B06D0000D86D000090ED00E0034B05222B
:10257C005A60BFF34F8FBFF36F8F704790ED00E041
:10258C00BFF35F8F014B00225A60704790ED00E063
:10259C00254910B50C68082C13D94FF49D73234AA8
:1025AC002349244803F097F823480822214603F0D6
:1025BC0092F81E484FF49D7103F098F94FF0FF30DC
:1025CC0010BDFFF7DDFF48681C490022944200F162
:1025DC000C0019D11A4B1C70FFF7C8FF0B68C3F322
:1025EC000723082B0ED01749104A12484FF4AE732C
:1025FC0003F071F8144803F06EF80C484FF4AE7108
:10260C0003F074F90020DBE78A6050F80C3C23F0EF
:10261C001F03134343F01003CB6050F8043C43F00A
:10262C0001030B610132D1E7945E0000036E0000E0
:10263C007A740000A55F0000436E000090ED00E08E
:10264C00C10B0020776E0000C76E000038B50E4D30
:10265C0001232A780C46FFF739FF2870163011D168
:10266C0040F20313094A0A490A4803F034F8214698
:10267C00094803F030F8BDE83840044840F2031133
:10268C0003F034B938BD00BFC10B0020036E00004D
:10269C007A740000A55F0000E86E000010B5124AC5
:1026AC00002312780C46FFF711FF10F1160F08D01B
:1026BC000E4B0022072800DD10BD98601A61013016
:1026CC00F8E70B4A0B490C484FF4917303F003F8ED
:1026DC0021460A4802F0FFFFBDE8104004484FF4C1
:1026EC00917103F003B900BFC10B002090ED00E025
:1026FC00036E00007A740000A55F0000146F0000E8
:10270C00014B1860704700BF040000204FF02003FD
:10271C00EFF3118283F31188BFF36F8F0649012306
:10272C00C1F840354FF08041C1F8783582F31188FB
:10273C00BFF36F8F0020704700E0014020B1034BC6
:10274C00800143F001031847704700BF305E000062
:10275C0008B5084B08481B683BB102F0BCFF0749A1
:10276C000748BDE8084002F0B6BF02F0B4FF0549C7
:10277C00F6E700BF280700206B6F00000870000010
:10278C000F7000002570000070B5C56816460C4629
:10279C0061B92249224A2348242302F09CFF224893
:1027AC0002F099FF1E48242103F0A0F8636863B976
:1027BC001E491B4A1B48252302F08DFF1C4802F0C2
:1027CC008AFF1748252103F091F86B685BB1002252
:1027DC009C4213D123685AB9AA686B60944200D109
:1027EC00AB600023236076B9002070BD0B46EFE789
:1027FC001360AB689C4208BFAA60F2E719681A46DE
:10280C000029F3D13EB16B682360A8686C60002886
:10281C00EAD1AC60E9E76FF01500E6E75D70000007
:10282C0030700000A55F000066700000757000003D
:10283C008770000003685A090CBF4FF0FF3200226A
:10284C0003F01F0322FA03F3DB0710B504460BD485
:10285C0010491148114A40F21A2302F03CFF0F486C
:10286C0040F21A2103F042F8236803F01F025B09BF
:10287C0022600BD00A490848084A40F21F2302F094
:10288C002AFF064840F21F2103F030F84FF0A04019
:10289C0010BD00BFD1700000A55F00009E7000004D
:1028AC007A74000008B5094B1A786AB901211970BD
:1028BC0006200521FFF722FA0620FFF701FA044B48
:1028CC004FF00042C3F80423002008BDC20B0020C7
:1028DC00006000402E4BF7B52E4C40681340A342CD
:1028EC0045D00ED8062B44D006D8002B41D0022B55
:1028FC0041D06FF0150038E0B3F5801FF9D10124F9
:10290C0009E0254CA34238D0B3F5A00F37D0B3F56E
:10291C00800FEED10224D50682F4807354BFC2F32B
:10292C0040160326C3F300279305C2F3402507D5B1
:10293C001305D0F804C024D501238B40CCF80835FE
:10294C00037A01F01F0141EA431101A80191FFF73D
:10295C0071FF019A45EA470343EA042302F5E0724A
:10296C0043EA860340F82230002003B0F0BD072470
:10297C00D1E71C46CFE70424CDE70524CBE703249D
:10298C00C9E7530542BF01238B40CCF80C35D7E780
:10299C000600F0000600100002004000B2F5A03F57
:1029AC002DE9F743C46880460D461746994601F059
:1029BC001F0640F0C28043681B7A01A846EA431305
:1029CC000193FFF737FF019B03F5E07350F82330B9
:1029DC00DB0700F1D680E3680121A9401943636944
:1029EC00E1600121A940B7F5A03F0CBF0B438B431D
:1029FC006361A369644AD8F80C70B9F5C02F0CBF99
:102A0C000B438B43A3612369B9F5802F0CBF19438A
:102A1C0023EA0101D8F804302161187AD2F80413A2
:102A2C0046EA4016C9B2002303F5A27052F8200002
:102A3C00C0F30420864240F08B8021FA03F0C007DB
:102A4C0040F18680012199405048BFF35B8FCC4305
:102A5C0050E800CF0CEA040C40E800CEBEF1000FA9
:102A6C00F6D1BFF35B8F9B0003F1804303F5C043AA
:102A7C00D3F8100520F00100C3F81005C2F80813B4
:102A8C000021304603F07FF8FB68EB4013F00103A4
:102A9C0051D07B69EB4013F0010466D0BB69EB406D
:102AAC00DB075FBF396921FA05F505F00105C5F1B2
:102ABC000205364954BFEDB203250022012707FA5F
:102ACC0002F4BFF35B8F51E8000F40EA040341E8C6
:102ADC00003CBCF1000FF6D1BFF35B8FD04010F07F
:102AEC0001033AD1910001F1804101F5C04140321E
:102AFC00D1F8100520F4473020F440709200C1F852
:102B0C001005360292B2D1F8100506F4F85602F10F
:102B1C00804202F5C04246EA05460643C1F81065FC
:102B2C0013601268D1F8102542F00102C1F810258B
:102B3C00154AC2F80443184614E0B2F5005F7FF45E
:102B4C004AAF012101FA05F3E16821EA030146E7E6
:102B5C000133082B7FF468AF92E70132082AAED11B
:102B6C006FF0120003B0BDE8F0833969E94001F061
:102B7C000101C1F103013046C9B203F004F820464B
:102B8C00F0E76FF02200EDE70060004048070020FE
:102B9C002DE9F0474C4E3768002F52D04B4BD3E900
:102BAC000521DD681B690A4325EA02054FF0A042A6
:102BBC004FF00108D2F810455C4025EA04044FF0B0
:102BCC0000097DBB356033684148002301251E4652
:102BDC00D0F8042305FA03F1114211D09A0002F146
:102BEC00804202F5C242116851B103F5A27150F84E
:102BFC0021101660C1F3042105FA01F112680C438F
:102C0C000133082BE4D1F4B957B1304DD5E9052186
:102C1C00EC680A4324EA020401260027002C41D167
:102C2C00BDE8F08715EA080F06D0002109F01F0057
:102C3C0002F0A9FF25EA080509F101094FEA480845
:102C4C00BFE73C46C0E7214B5D68002DDCD02E6809
:102C5C00DFF88890DFF88880DFF888A0002E38BF76
:102C6C000026AB681C4214D06B6863B951461948F6
:102C7C004523424602F02FFD174802F02CFD45215A
:102C8C00404602F033FED5E901322946224048463F
:102C9C009847002EB8D03368002B38BF0023354638
:102CAC001E46DEE726420CD02969F94001F00101ED
:102CBC00C1F10301C9B207F01F0002F064FF24EA5E
:102CCC00060401377600A9E77C6100402C07002040
:102CDC0000600040A55F00008770000060000020CD
:102CEC0030700000F4700000064B1A683AB10020F6
:102CFC0018601B68044BD3F818350B7070474FF0F5
:102D0C00FF3070470821004000200040024BD3F8F0
:102D1C008004C3F8800470470020004030B54B7924
:102D2C00012B1ED18B79032B1BD1CA790AB1012A35
:102D3C0017D10C7914B1022C13D10E240B68B3F5F6
:102D4C00164F5FD02BD8B3F5165F5DD014D8B3F502
:102D5C00966F5BD008D8B3F5967F5AD0B3F5167F33
:102D6C005AD06FF022004CE0B3F5166F57D0B3F584
:102D7C00965FF6D1344B39E0B3F5E14F52D007D81A
:102D8C00B3F5615F50D0B3F5964FEAD12F4B2DE0E0
:102D9C0047F61225AB42E4D14FF4000326E0B3F51D
:102DAC00613F44D011D8B3F5963F42D008D84DF6C8
:102DBC00C025AB423FD0B3F5614FD2D1244B15E0C7
:102DCC00B3F5E13FCDD1234B10E0B3F5612F35D0F6
:102DDC0007D8214DAB4233D0B3F5E12FC1D11F4BF6
:102DEC0004E01F4DAB42BCD14FF080531D4D22432C
:102DFC00C5F82435C5F86C25C36803C983E80300FE
:102E0C00002030BD184BF1E7184BEFE74FF49E2331
:102E1C00ECE74FF4A033E9E74FF41C33E6E74FF44B
:102E2C001D23E3E7124BE1E74FF46C13DEE7114B84
:102E3C00DCE7114BDAE74FF46503D7E70F4BD5E727
:102E4C004FF08063D2E700BF00B0130000A04E002B
:102E5C0000F0EB0000E0D70190D0030000705F079A
:102E6C0040420F000020004000509D000050270001
:102E7C0000F0750000B0AF0300903A0100D0BE0E18
:102E8C0003685A090CBF4FF0FF32002203F01F03F6
:102E9C0022FA03F3DB0710B504460BD41049114892
:102EAC00114A40F21A2302F016FC0F4840F21A2184
:102EBC0002F01CFD236803F01F025B0922600BD09B
:102ECC000A490848084A40F21F2302F004FC06484D
:102EDC0040F21F2102F00AFD4FF0A04010BD00BFD0
:102EEC00D1700000A55F00009E7000007A74000095
:102EFC00F8B50E4602F09FFE194D70BB64240127F5
:102F0C00BFF35B8F55E8003F002B03D145E80072FF
:102F1C00002AF7D1BFF35B8F07D021200021013CA1
:102F2C0001F024FE14F0FF04EAD10E4C00222260C2
:102F3C0022680D4A01211160C2F814654FF47A76AB
:102F4C00236823B9012002F03AFE013EF8D1074B69
:102F5C0001221A6000232B60F8BD01232B60E4E7EB
:102F6C004C0700201C210040082000400C20004091
:102F7C002DE9F3472E4C4FF0000806270546C4F800
:102F8C00008501A80197FFF77BFF019B012606FA3C
:102F9C0003F3C0F8083501A80197FFF771FF019BF7
:102FAC0003F5E0734FF0030940F823904FF0080A43
:102FBC0001A8CDF804A0FFF763FF019B03F5E073B4
:102FCC0040F82380C4F814A501A8C4F80C75052793
:102FDC000197FFF755FF019B06FA03F3C0F808357C
:102FEC0001A80197FFF74CFF019B03F5E07340F834
:102FFC0023904FF0070901A8CDF80490FFF740FF8C
:10300C00019BE96803F5E07340F82380C4F8087568
:10301C002846C4F81095FFF781FE30B90423C4F894
:10302C000035044B18601B68266002B0BDE8F087C1
:10303C000020004008210040044B1868421C04BFCB
:10304C00034B1878831F58425841704730010010C9
:10305C00E00F00F0074B1B78062B09D1064B1B68C1
:10306C00C3F30313033B032B02D8044AD05C704711
:10307C0000207047E00F00F0E80F00F0087100002E
:10308C0008B5FFF7D9FF28B17E4B7F4A1B68C3F305
:10309C0004231360FFF7DEFF10B17C4B7C4A1A60EF
:1030AC00FFF7CAFF28B17B4B7B4A1B68C3F3423343
:1030BC001360FFF7CFFF20B1784AD36823F08073F9
:1030CC00D360FFF7B9FF40B14FF080430022C3F843
:1030DC000C21C3F81021C3F83825FFF7BBFF10B142
:1030EC006F4B03221A60FFF7B5FF40B16D4B052201
:1030FC001A6001229A6700229A603F225A606A4B3A
:10310C001A68511C0BBF694B694B1A781B6802BFBC
:10311C0008331B68C3F30313062A4DD1033B032B5F
:10312C0003D8644AD35C002B46D04FF08052624BDC
:10313C00D2F80414C3F82015D2F80814C3F82415D7
:10314C00D2F80C14C3F82815D2F81014C3F82C15A7
:10315C00D2F81414C3F83015D2F81814C3F8341577
:10316C00D2F81C14C3F84015D2F82014C3F8441537
:10317C00D2F82414C3F84815D2F82814C3F84C1507
:10318C00D2F82C14C3F85015D2F83014C3F85415D7
:10319C00D2F83414C3F86015D2F83814C3F8641597
:1031AC00D2F83C14C3F86815D2F84014C3F86C1567
:1031BC00D2F84424C3F87025FFF73EFF28B13F4BEB
:1031CC003F4A1B6803F04F031360FFF735FF48B10C
:1031DC004FF08043D3F80024D20744BF6FF00102B4
:1031EC00C3F80024304B1B68062B0CD1304B1B68EA
:1031FC00033B032B02D8334AD35C23B1324A136806
:10320C0043F4806313604FF01023D3F80022002A9C
:10321C0003DBD3F80432002B2FDA2C4B0122C3F83A
:10322C000425D3F80024002AFBD04FF010221521DE
:10323C00C2F80012D3F80024002AFBD04FF0102360
:10324C001522C3F80422214B1A46D3F80014002986
:10325C00FBD00021C3F80415D2F80034002BFBD0AE
:10326C00BFF34F8F1A491B4BCA6802F4E062134339
:10327C00CB60BFF34F8F00BFFDE7174B174A1A60A7
:10328C0008BD00BF240300104035014074C0074046
:10329C000DF0ADBA440200103C050040F0ED00E02A
:1032AC00A00500401056004030010010E00F00F067
:1032BC00340100100071000000C0004058020010E2
:1032CC00E40E0040047100003C17004000E0014097
:1032DC0000ED00E00400FA05100000200090D0037F
:1032EC0008B578B101281CD0144A1549154840F28C
:1032FC00423302F0F0F9114840F2423102F0F6FA92
:10330C0000200DE031B14FF08043D3F8183403F0B6
:10331C0003030B604FF08043D3F81804C0F3004054
:10332C0008BD31B14FF08043D3F80C3403F00103E6
:10333C000B704FF08043D3F80C04EFE70C710000D6
:10334C007A740000A55F000010B5044648B90A491C
:10335C000A480B4AB32302F0BEF90948B32102F024
:10336C00C5FA084B1A7922B9012207481C609A80C9
:10337C0010BD0648FCE700BF7D710000A55F000092
:10338C0040710000500700200000AD0B0C00AD0B8D
:10339C0008B50B4B1B794BB90A490B480B4ACC238C
:1033AC0002F099F90948CC2102F0A0FA0020FEF7AE
:1033BC0097FC18B9BDE80840FEF782BC08BD00BFF9
:1033CC00500700208B710000A55F000040710000C9
:1033DC002C4B1B7937B504465BB92B492B482C4A2F
:1033EC004FF4847302F077F929484FF4847102F09A
:1033FC007DFA74B1012C3AD0254A264923484FF462
:10340C009D7302F068F922484FF49D7102F06EFA38
:10341C0029E001A92046FFF763FF4FF0804320B35A
:10342C00019A012A21D1C3F818251B4B00221A60DE
:10343C001B684FF080430222C3F80423174AD0685C
:10344C0040F08073D360164B1C6844F00101196086
:10345C005D685968491BB1F50A5FFAD31C60114BC2
:10346C00D06001221A6003B030BD0022DBE70E4BA6
:10347C0000221A601B684FF08043C3F804431C60A1
:10348C00F1E700BF500700208B710000A55F000022
:10349C00407100007A74000004010040F0ED00E07F
:1034AC00001000E0080000400001004037B52F4D2F
:1034BC002A7904465AB92E492E482F4A40F2411314
:1034CC0002F009F92C4840F2411102F00FFA7CB1DC
:1034DC00012C28D029492748274A40F25D1302F0D5
:1034EC00FAF8254840F25D1102F000FA03B030BD45
:1034FC004FF080430222C3F80823C3F8044103F5BC
:10350C00827301221B681E4B42F210741A60002158
:10351C000846FFF7E5FE0028E8D0012002F04FFB3B
:10352C00013CF4D1E2E74FF080430022C3F808439A
:10353C00C3F8002103F580731B68124B1C608DF8D7
:10354C00074042F210740DF107010120FFF7C8FE8D
:10355C0010B900236B71C9E79DF807000128F8D159
:10356C0002F02DFB013CEED1F3E700BF5007002029
:10357C008B710000A55F0000407100007A740000A0
:10358C000C00004004000040164B07B51A686AB1E5
:10359C0000221A601B684FF080430122C3F80823F5
:1035AC00114B587910B95A711B6898470F4B1A6810
:1035BC006AB10020186001A91B68FFF791FE019AFF
:1035CC004FF0804332B90122C3F818259A6003B03A
:1035DC005DF804FB0222C3F80823034B01201B688F
:1035EC009847F4E700010040500700200401004018
:1035FC002DE9F041044690460D4649B9224923482D
:10360C00234A3D2302F067F821483D2102F06EF970
:10361C002279204B03EBC201C1F8048013F832105D
:10362C0079BB012003F8320023682A78C3F80C25F3
:10363C006B685F0CDE034FF47A7200233046394618
:10364C00FCF746FDB7F57A7F08BF002E054609D377
:10365C0011490E480E4A582302F03DF80C485821E7
:10366C0002F044F92068C0F80455B8F1000F06D0F8
:10367C000122C0F8042340F30730FEF721FB074872
:10368C0000E00748BDE8F081E4710000A55F000090
:10369C00A971000058070020ED7100000000AD0B6F
:1036AC000500AD0B70B5134C067904EBC60305464B
:1036BC005B784BB910491148114A6E2302F00BF894
:1036CC000F486E2102F012F914F83630012B09D094
:1036DC000C490A480A4A6F2301F0FDFF08486F2184
:1036EC0002F004F92B6801221A60022304F8363028
:1036FC0070BD00BF5807002003720000A55F0000DA
:10370C00A97100001A720000F8B5054607790E463B
:10371C0049B91C491C481D4A852301F0DCFF1B4894
:10372C00852102F0E3F81A4C14F83720012A09D04D
:10373C0018491548154A862301F0CDFF13488621F8
:10374C0002F0D4F84FF02003EFF3118C83F31188BF
:10375C00BFF36F8F04EBC7035A78072A10D8327067
:10376C00511C597029680123D1F808059340034373
:10377C000948C1F808358CF31188BFF36F8FF8BD79
:10378C000648F8E744720000A55F0000A97100002C
:10379C00580700201A7200000000AD0B0200AD0BA0
:1037AC0038B50C4B027913F83230022B05460C4617
:1037BC0009D0094909480A4A9B2301F08CFF0848A3
:1037CC009B2102F093F82B68064A04F5C07443F869
:1037DC00242038BD5807002051720000A55F00005E
:1037EC00A97100003546526E10B5054C23682BB1FB
:1037FC00044B5B68984700232360236810BD00BF0F
:10380C000001014058070020F8B5104B104F53F839
:10381C002050013053F82060AE4200D8F8BDD5E9F5
:10382C0000342046984770B16CB1E41B2411610937
:10383C00084A04F01F0452F82100012303FA04F48F
:10384C00044342F821400835E6E700BFF85E00006B
:10385C002000002070000020084BC01A0011084BFB
:10386C00420900F01F0053F82220012303FA00F054
:10387C0010420CBF18460020704700BF20000020EB
:10388C0070000020114970B5114C05460E468C4253
:10389C0004D10F4CB4420AD1002414E02046FFF7A7
:1038AC00DBFF10B12368AB420DD01034EFE720469C
:1038BC00FFF7D2FF08B91034ECE72168284602F074
:1038CC00DAF80028F7D1204670BD00BF7000002048
:1038DC002000002010B545210446034801F0FBFEF2
:1038EC00204602F06EF900BF93720000F7B5044653
:1038FC000D464FF02003EFF3118783F31188BFF3CC
:10390C006F8F01F069F9042C96BF204B204B53F8B4
:10391C0024300022064600921E482246452101F022
:10392C00DAFE3DB1EB69C3F308031BB11A4845211C
:10393C0001F0D1FE304602F086F90346C0B10178A1
:10394C00164A002908BF134615484521324601F096
:10395C00C2FE29462046FFF7BDFF5DB1EB69C3F3FC
:10396C0008033BB187F31188BFF36F8F03B0F0BD31
:10397C000A4BE9E7012CF5D087F31188BFF36F8F61
:10398C00304603B0BDE8F040FEF744BD105F0000C8
:10399C00A7720000BD720000EA720000B572000050
:1039AC001073000008B50B4D4FF02002EFF311839C
:1039BC0082F31188BFF36F8F01F074FC0121022890
:1039CC000446D8BF084601F0B5FC2C62FEF7ACFAF1
:1039DC00EAE700BF600700200248034A0021121AE0
:1039EC0002F080B868010020C40B002008B506481E
:1039FC00064A0749121A02F04AF8BDE80840054A7F
:103A0C000549064802F043B800000020640100207C
:103A1C00107700000000000010770000000000206C
:103A2C0008B5094B012202201A70FFF7EDFE0320A6
:103A3C00FFF7EAFE01F012FA02F07CF8034A137B5E
:103A4C0023F00103137308BDC30B002028050020CD
:103A5C002DE98048384BB1B083F30888374D384E88
:103A6C006B69DFF8FC90374F43F4007300246B61F3
:103A7C00E02385F82230EC772C766C76AC766B6A8A
:103A8C0043F4E0236B62FEF7B1FCFEF747FA4FF00C
:103A9C00FF33AB62EB622C4D40F20113ADF82C30CE
:103AAC0008ABAB602046CDE92A44FFF7ADFE012000
:103ABC00FFF7AAFE4FF0010A00F004FF234B6E62E1
:103ACC00234905934FF400624B46CDE9034ACDE9F7
:103ADC0001440094304601F04FF9737B804623F08B
:103AEC00040330460DF1180B737300F0A1FA194A58
:103AFC0023460821584601F0FBFD0F23CDE9024374
:103B0C001549164B4FF4A072CDE904ABCDE9004436
:103B1C00384601F031F97B7BEF6023F004037B73B3
:103B2C00054B6B6005F11803C5E906332C754A4645
:103B3C0041463046FEF74CF92032002000ED00E003
:103B4C0028050020880400206007002077730000FF
:103B5C00802000207C730000A0280020B1390000D8
:103B6C002D3A0000036810B504465BB906490748B6
:103B7C00074A40F2ED1301F0AEFD054840F2ED119D
:103B8C0001F0B4FE206810BDAB730000A55F00000F
:103B9C008973000010B5084C23685BB1FDF7A2FFD8
:103BAC0003462068054A0344BDE810401361002118
:103BBC0001F0C0BB10BD00BF9C07002060070020B7
:103BCC00F8B505460C464FF02003EFF3118683F34E
:103BDC001188BFF36F8F204801F0D0F968B91F4AE4
:103BEC001F4920485C2301F076FD1B491E4801F05B
:103BFC0072FD1A485C2101F079FE174801F0DCF9DE
:103C0C001A4B00224FF4004740F2E73000211A61B2
:103C1C00E7FB05014FF47A720023FCF759FA144BB9
:103C2C001860144B1C60FFF7B5FF0B4801F0B4F99A
:103C3C0068B90A4A10490B48842301F04CFD064927
:103C4C000E4801F048FD0548842101F04FFE86F333
:103C5C001188BFF36F8FF8BD9407002062650000D8
:103C6C00AD650000A55F0000C26500006007002084
:103C7C009C070020980700208165000098650000D3
:103C8C0038B504460D46E9B9EFF30583D3B9194BA2
:103C9C005A6A9B689A4215D001F07EF968B9164AA7
:103CAC00164917489B2301F016FD1648214601F0D2
:103CBC0012FD11489B2101F019FEBDE8384000208F
:103CCC00FDF7E2BF204601F067F968B90A4A0B49D3
:103CDC000B48842301F0FFFC0A48214601F0FBFC51
:103CEC000548842101F002FE85F31188BFF36F8F24
:103CFC0038BD00BF600700206265000081650000D0
:103D0C00A55F00009865000038B54FF02003EFF375
:103D1C00118583F31188BFF36F8F2B4801F02EF9B7
:103D2C0068B92A4A2A492B485C2301F0D4FC26495D
:103D3C00294801F0D0FC25485C2101F0D7FD224830
:103D4C0001F03AF9EFF3058373B12449244A214871
:103D5C004FF4867301F0BFFC224801F0BCFC2048F4
:103D6C004FF4867101F0C2FD1F4CA268D27B012A70
:103D7C000ED11E491A4A174840F20D1301F0ABFC44
:103D8C00184801F0A8FC164840F20D1101F0AEFDE8
:103D9C00A268D37B013BD3730B4801F0FDF868B9E3
:103DAC000A4A13490B48842301F095FC0649114833
:103DBC0001F091FC0548842101F098FD85F31188F0
:103DCC00BFF36F8F38BD00BF940700206265000001
:103DDC00AD650000A55F0000C2650000E673000041
:103DEC00C2730000F873000060070020FB73000032
:103DFC008165000098650000114B03F12802824296
:103E0C0010B50C4605D19B688B4202D14B7BDB066F
:103E1C0015D10C4B9C420BD10B490C480C4A40F26F
:103E2C009F3301F058FC0A4840F29F3101F05EFDCF
:103E3C00D4E9003213605A600023C4E9003310BD8A
:103E4C0060070020880400202B740000A55F000090
:103E5C008973000070B5104C064604F1280001F07F
:103E6C00E0FEA368597B0546880644BF41F0080173
:103E7C00597305B9E5684EB95A7BD20606D1AA69C1
:103E8C0022B9DA897F2A01D9636270BDAB4201D0B5
:103E9C00FFF780FE6562F8E76007002038B54FF049
:103EAC002003EFF3118583F31188BFF36F8F2D4837
:103EBC0001F064F868B92C4A2C492D485C2301F0B8
:103ECC000AFC28492B4801F006FC27485C2101F02C
:103EDC000DFD294C234801F06FF8A268D27B72B912
:103EEC002649274A224840F23A3301F0F4FB254890
:103EFC0001F0F1FB224840F23A3101F0F7FCEFF30C
:103F0C00058373B120491E4A194840F23B3301F036
:103F1C00E2FB1C4801F0DFFB194840F23B3101F099
:103F2C00E5FCA268D37B01330020D373FFF792FF2B
:103F3C000C4801F031F868B90B4A14490C48842339
:103F4C0001F0C9FB0749124801F0C5FB0648842162
:103F5C0001F0CCFC85F31188BFF36F8FBDE83840BE
:103F6C0001F046BE9407002062650000AD650000BC
:103F7C00A55F0000C2650000600700204C740000C3
:103F8C0089730000F8730000E6730000816500007F
:103F9C009865000070B5437BDB0604463DD185690E
:103FAC00002D3AD11D4B98420BD11D491D481E4A7C
:103FBC0040F2893301F08FFB1B4840F2893101F04C
:103FCC0095FC1A4A134653F8280F984218BF054619
:103FDC00002DD06A19462B4638BF0023BBB194F98B
:103FEC000E6093F90E50AE4203DB98420FD01B6863
:103FFC00F4E75A68C4E9003214605C60637B63F0D8
:10400C007F0363730020BDE87040FFF723BFC4E952
:10401C000010D36A1C60D462F0E770BD88040020E5
:10402C002B740000A55F000089730000600700205E
:10403C0038B504464FF02003EFF3118583F3118854
:10404C00BFF36F8F174800F099FF68B9164A1749EC
:10405C0017485C2301F03FFB1249164801F03BFB6B
:10406C0011485C2101F042FC0E4800F0A5FF2046EF
:10407C00FFF790FF0B4800F08FFF68B90A4A0E4912
:10408C000B48842301F027FB06490C4801F023FB65
:10409C000548842101F02AFC85F31188BFF36F8F4A
:1040AC0038BD00BF9407002062650000AD650000BC
:1040BC00A55F0000C26500008165000098650000E6
:1040CC0038B504464FF02003EFF3118583F31188C4
:1040DC00BFF36F8F1D4800F051FF68B91C4A1D4992
:1040EC001D485C2301F0F7FA18491C4801F0F3FA5B
:1040FC0017485C2101F0FAFB144800F05DFF637B6C
:10410C005A0716D4114800F047FF68B9104A1449F1
:10411C001148842301F0DFFA0C49124801F0DBFA54
:10412C000B48842101F0E2FB85F31188BFF36F8FFC
:10413C0038BD23F0040320466373FFF72BFF294699
:10414C000248BDE83840FFF79BBD00BF9407002034
:10415C0062650000AD650000A55F0000C26500004F
:10416C00816500009865000070B504464FF020038F
:10417C00EFF3118683F31188BFF36F8F1E4800F0A5
:10418C00FDFE68B91D4A1E491E485C2301F0A3FAC6
:10419C0019491D4801F09FFA18485C2101F0A6FB53
:1041AC00154800F009FF54F8103CA4F1180513B1A0
:1041BC00284601F027FD14F80B3C23F01403284685
:1041CC0004F80B3CFFF7E6FE0B4800F0E5FE68B97F
:1041DC000A4A0E490B48842301F07DFA06490C4823
:1041EC0001F079FA0548842101F080FB86F31188EF
:1041FC00BFF36F8F70BD00BF940700206265000095
:10420C00AD650000A55F0000C2650000816500007F
:10421C009865000070B590F90D30002B044603DA58
:10422C0001461F48FFF7E8FD1E4B9C420BD11E496F
:10423C001E481F4A40F2893301F04DFA1C4840F2E7
:10424C00893101F053FB1B4A1146D06A51F8283FC3
:10425C008B4208BF0023002B38BF0023D3B194F945
:10426C000E6093F90E50AE4203DB984212D01B68DD
:10427C00F4E75968C4E900310C605C60637B9068BA
:10428C0063F07F036373031B5842BDE870405841D1
:10429C00FFF7E0BDC4E90010D36A1C60D462EDE7FF
:1042AC0088070020880400202B740000A55F000004
:1042BC00897300006007002070B504464FF020039E
:1042CC00EFF3118583F31188BFF36F8F2A4800F049
:1042DC0055FE68B9294A2A492A485C2301F0FBF9A2
:1042EC002549294801F0F7F924485C2101F0FEFA30
:1042FC00214800F061FE254B254A986811688842D8
:10430C00194618D1FFF746FC1B4800F045FE68B96A
:10431C001A4A20491B48842301F0DDF916491E482E
:10432C0001F0D9F91548842101F0E0FA85F31188E0
:10433C00BFF36F8F70BD00261660184A1268BAB1B1
:10434C00C2897F2A14D8427BD20611D1144A90F923
:10435C000E60126896420BDB124A904208D01A6922
:10436C00A24202DCFFF756FFCCE7121B1A61CBE727
:10437C0000230B61C8E700BF9407002062650000B2
:10438C00AD650000A55F0000C2650000600700205D
:10439C009007002081650000986500009C070020B4
:1043AC00980700208804002070B50446183000F0EF
:1043BC002BFF4FF02003EFF3118683F31188BFF32B
:1043CC006F8F254800F0DAFD68B9244A2449254846
:1043DC005C2301F080F92049234801F07CF91F4847
:1043EC005C2101F083FA1C4800F0E6FD94F90D30D5
:1043FC00002B07DA1D482146FFF7FEFC637B03F018
:10440C007F0363731A4D637BA86843F010036373D7
:10441C00031B58425841FFF71DFD0F4800F0BCFD2F
:10442C0068B90E4A13490F48842301F054F90A491C
:10443C00114801F050F90948842101F057FA86F32C
:10444C001188BFF36F8FAB68A34203D1BDE87040F6
:10445C0001F0CEBB70BD00BF940700206265000068
:10446C00AD650000A55F0000C26500008807002054
:10447C006007002081650000986500002DE9F0417F
:10448C00037BDD0704460ED549494A4A4A484FF496
:10449C00FA7301F020F9494801F01DF945484FF431
:1044AC00FA7101F023FA236E03B1984704F1180056
:1044BC0000F0AAFE4FF02003EFF3118683F311886E
:1044CC00BFF36F8F3E4800F059FD68B93D4A3E4935
:1044DC0039485C2301F0FFF839493C4801F0FBF8FE
:1044EC0038485C2101F002FA354800F065FD637B29
:1044FC00D80636D1A269002A33D1190607D534481B
:10450C002146FFF779FC637B03F07F036373314B28
:10451C009868021B50425041FFF79CFC637B43F0B0
:10452C000803637304F130080027256B454500D060
:10453C003DBB234800F030FD68B9224A26491E488D
:10454C00842301F0C8F81E49244801F0C4F81D4822
:10455C00842101F0CBF986F31188BFF36F8FBDE88E
:10456C00F0819B07DAD504F10800FFF7FBFA21462E
:10457C00FFF742FC637B23F0020363730023A36009
:10458C00CCE705F1180000F03FFE05F10800FFF73D
:10459C00E9FA2946FFF730FC6B7BAF6023F002038E
:1045AC006B73C5F89C702846FFF7F4FCBDE700BFA1
:1045BC007C74000089730000A55F0000AA740000E1
:1045CC009407002062650000AD650000C265000024
:1045DC0088070020600700208165000098650000B6
:1045EC0010B590F90D30002B044607DA0146084847
:1045FC00FFF702FC637B03F07F036373054B986842
:10460C00031B5842BDE810405841FFF723BC00BFC4
:10461C00880700206007002038B504460D46FFF7D8
:10462C00DFFF637B43F0020363733DB3174BA5605D
:10463C009C420BD116491748174A40F2893301F0B6
:10464C004AF8154840F2893101F050F92B689D4227
:10465C0008BF0023002B38BF002383B194F90E1040
:10466C0093F90E20914204DB6A689A4207D01B68CA
:10467C00F3E75A68C4E9003214605C6038BD6B68BB
:10468C0063606B6825601C606C60F7E78804002031
:10469C002B740000A55F0000897300002DE9F04128
:1046AC0004460D4616461F464FF02003EFF31188C3
:1046BC0083F31188BFF36F8F1F4800F05FFC68B95C
:1046CC001E4A1F491F485C2301F005F81A491E4871
:1046DC0001F001F819485C2101F008F9164800F0C6
:1046EC006BFC20462946FFF797FF134800F054FC5B
:1046FC0068B9124A15491348842300F0ECFF0E499F
:10470C00134800F0E8FF0D48842101F0EFF888F31E
:10471C001188BFF36F8F7B1C08BFB6F1FF3F08D029
:10472C0032463B4604F118000A49BDE8F04100F05E
:10473C0097BCBDE8F08100BF9407002062650000C3
:10474C00AD650000A55F0000C2650000816500003A
:10475C00986500007541000038B5114B0446986807
:10476C00104B0D4618601146DDE90423FFF796FF48
:10477C00204600F011FC68B90B4A0C490C489B23ED
:10478C0000F0A9FF0B48214600F0A5FF06489B212D
:10479C0001F0ACF82846BDE83840FDF775BA00BF0B
:1047AC006007002090070020626500008165000012
:1047BC00A55F00009865000038B504464FF0200353
:1047CC00EFF3118583F31188BFF36F8F364800F038
:1047DC00D5FB68B9354A364936485C2300F07BFF77
:1047EC003149354800F077FF30485C2101F07EF804
:1047FC002D4800F0E1FB204601F013FA04462A484C
:10480C0000F0CAFB68B9294A2C492A48842300F0D5
:10481C0062FF25492A4800F05EFF2448842101F0FC
:10482C0065F885F31188BFF36F8F002C39D04FF0EA
:10483C002003EFF3118583F31188BFF36F8F1A48B0
:10484C0000F09CFB68B9194A19491A485C2300F01E
:10485C0042FF1549184800F03EFF14485C2101F056
:10486C0045F8114800F0A8FB204601F0CBF90E48A2
:10487C0000F092FB68B90D4A10490E48842300F0F1
:10488C002AFF09490E4800F026FF0848842101F050
:10489C002DF885F31188BFF36F8F04F1180000F029
:1048AC00B3FC204638BD00BF9407002062650000B1
:1048BC00AD650000A55F0000C265000081650000C9
:1048CC0098650000044B002103F12802C3E90A2279
:1048DC000846FFF775B900BF60070020F8B5EFF385
:1048EC00058373B14649474A474840F2944300F068
:1048FC00F2FE464800F0EFFE424840F2944100F0D0
:10490C00F5FF434C434EA268B24267D04FF02003F0
:10491C00EFF3118783F31188BFF36F8F3E4800F0DC
:10492C002DFB68B93D4A3E4937485C2300F0D3FE65
:10493C0039493C4800F0CFFE38485C2100F0D6FFE6
:10494C00354800F039FBA1683748FFF755FAA568E0
:10495C00B5420BD135492C482A4A40F2893300F034
:10496C00BAFE284840F2893100F0C0FFA36A2E49F4
:10497C00E26A8B4208BF0023002B38BF0023002BB8
:10498C0038D095F90E6093F90E00864203DB934202
:10499C0030D01B68F3E75A68C5E9003215605D60DA
:1049AC00A268537B63F07F0301205373FFF752FA25
:1049BC00194800F0F1FA68B9184A1D4912488423C5
:1049CC0000F089FE14491B4800F085FE1348842131
:1049DC0000F08CFF87F31188BFF36F8F4FF020032B
:1049EC00EFF3118083F31188BFF36F8FBDE8F840AC
:1049FC00FDF74AB9C5E90012E36A1D60E562CFE72D
:104A0C00E673000089730000A55F0000F8730000D6
:104A1C0060070020880400209407002062650000D5
:104A2C00AD650000C2650000880700202B740000F3
:104A3C0081650000986500002DE9F0410446EFF314
:104A4C00058373B13B493C4A3C4840F2B24300F009
:104A5C0042FE3B4800F03FFE374840F2B24100F0C6
:104A6C0045FF24B9FFF73AFF2046BDE8F08101F07D
:104A7C00ECF82646E71704444FF02003EFF31188B7
:104A8C0083F31188BFF36F8F2E4800F077FA68B963
:104A9C002D4A2E4929485C2300F01DFE29492C483B
:104AAC0000F019FE28485C2100F020FF294D254814
:104ABC0000F082FA284BA8681860FFF791FDA868EF
:104ACC00264932463B46183000F0CAFAAA681D48FF
:104ADC00537B43F01003537300F05EFA68B91A4A23
:104AEC001F4916489B2300F0F6FD16491D4800F09F
:104AFC00F2FD15489B2100F0F9FE4046FDF7C4F885
:104B0C00AB685B7BDB060ED517490B4A0B4840F2B2
:104B1C00D24300F0E0FD0A4800F0DDFD064840F20B
:104B2C00D24100F0E3FE01F090F8241A24EAE47478
:104B3C009AE700BFE673000089730000A55F0000D0
:104B4C00F87300009407002062650000AD6500005A
:104B5C00C26500006007002090070020754100002E
:104B6C008165000098650000C574000038B50446E6
:104B7C000D46EFF3058373B11249134A134840F203
:104B8C00E14300F0A8FD124800F0A5FD0E4840F2EC
:104B9C00E14100F0ABFE013508BFB4F1FF3F06D197
:104BAC000C4B9868FFF700FC4FF0FF3038BD2046E7
:104BBC00FFF742FF4FF47A7380FB0334D80B40EAC3
:104BCC004440F3E7E673000089730000A55F000022
:104BDC00F873000060070020014B9868704700BF15
:104BEC006007002038B504464FF02003EFF3118521
:104BFC0083F31188BFF36F8F154800F0BFF968B9C4
:104C0C00144A154915485C2300F065FD10491448F9
:104C1C0000F061FD0F485C2100F068FE0C4800F0CC
:104C2C00CBF92046FFF7C8FD50B10022C0F89C20FC
:104C3C00FFF7FEF929460648BDE83840FFF720B8D3
:104C4C00D4E902329A4218BF0133A360F2E700BFE5
:104C5C00A007002062650000AD650000A55F0000A4
:104C6C00C2650000F7B5044616461F46EFF30583F0
:104C7C007BB156EA07030CD03549364A36488C23AB
:104C8C0000F029FD354800F026FD32488C2100F05B
:104C9C002DFE4FF02003EFF3118583F31188BFF342
:104CAC006F8F2F4800F06AF968B92E4A2E492A48AE
:104CBC005C2300F010FD2A492C4800F00CFD29481B
:104CCC005C2100F013FE264800F076F9A368D3B1FE
:104CDC00013B2348A36000F05FF968B9214A2449DD
:104CEC001D48842300F0F7FC1D49224800F0F3FC1A
:104CFC001C48842100F0FAFD85F31188BFF36F8FF7
:104D0C00002003B0F0BD56EA070318D1144800F098
:104D1C0043F968B9134A16490F48842300F0DBFCA9
:104D2C000F49144800F0D7FC0E48842100F0DEFD3A
:104D3C0085F31188BFF36F8F6FF00F00E1E7CDE9BA
:104D4C000067224629460648FFF706FDD9E700BF53
:104D5C002575000005750000A55F0000F8730000C4
:104D6C00A007002062650000AD650000C265000070
:104D7C0081650000986500002DE9FF470F9EDDF866
:104D8C0044900F2E04460F46154698463FD12D4BA6
:104D9C00984540D104F13003C4E90C33109B2373C4
:104DAC0007350423637325F0070507F12003C4E9D5
:104DBC0022350E9B029305F1200A0D9BA6730193DD
:104DCC0000260C9B0093BA44C4E90666E673C4F84B
:104DDC0090604346524639462046FCF7C1FFC4E971
:104DEC001766B9F1000F2AD01F22494604F164005E
:104DFC0000F02EFE84F88360134B9B680BB1D3F844
:104E0C009430C4F89430504604B0BDE8F08706F1F5
:104E1C0010031E2BBED90D4A0D490E4840F2132328
:104E2C0000F059FC31460C486FF00F030E2200F0D5
:104E3C0052FC064840F2132100F058FDAAE784F812
:104E4C006490D9E7B139000060070020727500004A
:104E5C0095750000A55F0000157600002DE9F04B5C
:104E6C003F4F404DDFF80C8186B03E46BD420ED917
:104E7C003D493E4840F2E123424600F02CFC3C48C0
:104E8C0000F029FC40F2E121404600F02FFDB54234
:104E9C0005F130041FD3FEF737FF324C354DDFF8E8
:104EAC00C880DFF8C890B4420ED941464FF4407325
:104EBC002A46484600F00FFC2D4800F00CFC4FF43D
:104ECC004071284600F012FDB44221D306B0BDE873
:104EDC00F04BFEF7E3BF54F8043C059354F8103C38
:104EEC00049354F8143C039354F8183C029354F86C
:104EFC001C3C019354F8203C009354E90A2354E9D8
:104F0C000C01FFF739FF54F8303CDD652546ADE761
:104F1C00616A4B1C14D040F2E732002321EAE171A4
:104F2C004FF4004093469C46C0FB01BC9C4508BF17
:104F3C00934527685846614604D13846FFF7C0F8B8
:104F4C003034B0E74FF47A720023FBF7C1F8024615
:104F5C000B4607F11800084900F082F8F0E700BF93
:104F6C00640100207400002046760000A55F00005C
:104F7C00737600007275000075410000006838B14E
:104F8C00044B1B7D00F00300C01A18BF01207047B2
:104F9C000120704760070020064903468A68087D97
:104FAC001968024391424FF0000004BF18600120C1
:104FBC00704700BF60070020024A117D93680B43C5
:104FCC000360704760070020034B1B680BB9FCF7AC
:104FDC0089BD0020704700BFA407002030B50368CE
:104FEC0068B10A4A5268904209D043B1D3E904210E
:104FFC00D0E90445121945EB0101C3E904214268CB
:10500C0013605A600023C0E9003330BD1400002047
:10501C0038B5114B1C689C4208BF0024FFF7D4FF25
:10502C000546ACB1D4E90401401B61EBE571B0F16C
:10503C00004F71F100030BDA002871F1000300DA64
:10504C000020064B1B6913B19842A8BF184638BD07
:10505C006FF00040F5E700BF14000020600700204F
:10506C002DE9F74F019119464B1C08BFB2F1FF3FD8
:10507C00824600F0A380541C6FF0010341F100053F
:10508C004FF0FF3BB3EB04086BEB0509B8F1000FD5
:10509C0079F100030FDBFFF797FF4F4AD2E9001CB1
:1050AC006FF001035B1A6BEB0C021E1B62EB050726
:1050BC00341A67EBE075DAF8003063B14749484AB7
:1050CC004848682300F007FB474800F004FB4448BD
:1050DC00682100F00BFC019BCAF80830012C75F11B
:1050EC000003BCBF012400254FF02003EFF3118611
:1050FC0083F31188BFF36F8F3C48FFF73FFF68B90C
:10510C003B4A3C4937485C2300F0E5FA37493A48BA
:10511C0000F0E1FA36485C2100F0E8FB3348FFF779
:10512C004BFFFFF751FF354B1A68241845EBE07520
:10513C009A42CAE9044501D05F6852B95A68CAF864
:10514C0004205A68CAF80030C2F800A0C3F804A0C2
:10515C0014E0D2E90489DAE90445444575EB090108
:10516C002FDAB8EB040069EB0501C2E904015168C0
:10517C00CAE90021C1F800A0C2F804A01A689A423A
:10518C0006D0924504D1FFF743FF0021FCF748FC01
:10519C001648FFF701FF68B9154A194911488423CD
:1051AC0000F099FA1149174800F095FA104884213B
:1051BC0000F09CFB86F31188BFF36F8F03B0BDE842
:1051CC00F08FB4EB080065EB0901BA42CAE904019F
:1051DC00B4D01268B1E700BFC8050020B676000055
:1051EC0092760000A55F0000F8730000A80700206D
:1051FC0062650000AD650000C2650000140000206F
:10520C00816500009865000038B504464FF0200316
:10521C00EFF3118583F31188BFF36F8F1A48FFF7F3
:10522C00ADFE68B9194A1A491A485C2300F053FAC2
:10523C001549194800F04FFA14485C2100F056FB50
:10524C001148FFF7B9FE2368DBB12046FFF7C6FE15
:10525C0000240D48FFF7A0FE68B90C4A0F490D4811
:10526C00842300F038FA08490D4800F034FA074856
:10527C00842100F03BFB85F31188BFF36F8F204630
:10528C0038BD6FF01504E4E7A80700206265000044
:10529C00AD650000A55F0000C265000081650000DF
:1052AC009865000038B54FF02003EFF3118583F3B8
:1052BC001188BFF36F8F1848FFF760FE68B9174A63
:1052CC00174918485C2300F006FA1349164800F0F9
:1052DC0002FA12485C2100F009FB0F48FFF76CFE44
:1052EC00FFF796FE04460C48FFF756FE68B90B4ACA
:1052FC000E490C48842300F0EEF907490C4800F0E5
:10530C00EAF90648842100F0F1FA85F31188BFF31D
:10531C006F8F204638BD00BFA807002062650000D3
:10532C00AD650000A55F0000C2650000816500004E
:10533C009865000070B504460D464FF02003EFF35E
:10534C00118683F31188BFF36F8F1B48FFF716FE8E
:10535C0068B91A4A1A491B485C2300F0BCF9164973
:10536C00194800F0B8F915485C2100F0BFFA124852
:10537C00FFF722FEFFF74CFE012805DDA04203DDFE
:10538C0029462046FCF74CFB0B48FFF705FE68B995
:10539C000A4A0E490B48842300F09DF906490C4833
:1053AC0000F099F90548842100F0A0FA86F31188E1
:1053BC00BFF36F8F70BD00BFA807002062650000AF
:1053CC00AD650000A55F0000C265000081650000AE
:1053DC00986500002DE9F74F0446FEF76DFF4FF07E
:1053EC002003EFF3118783F31188BFF36F8F5548B8
:1053FC00FFF7C4FD68B9544A544955485C2300F082
:10540C006AF95049534800F066F94F485C2100F0A6
:10541C006DFA514D514E4B48DFF84CA1FFF7CCFDC6
:10542C00B3462C60D6E90023D5F800C0DAF800406A
:10543C00CDE900236246D3175445E04699460CD07B
:10544C005CB1D4E904128C4579EB02032EDAB1EB92
:10545C000C0062EB0901C4E90401009A019918EBF4
:10546C0002024B4643EB01010024CBE900212C60E6
:10547C00FFF7CEFD2146FCF7D3FA3248FFF78CFD3F
:10548C0068B9314A36493248842300F024F92D4951
:10549C00344800F020F92C48842100F027FA87F3D7
:1054AC001188BFF36F8F03B0BDE8F08FDDE9008981
:1054BC00ACEB010018EB01084FF000024FF00003B9
:1054CC0049EBE1792860C4E904232046C6E9008948
:1054DC00FFF784FD1B48FFF75FFD68B91A4A2049A6
:1054EC001B48842300F0F7F816491E4800F0F3F827
:1054FC001548842100F0FAF987F31188BFF36F8FF8
:10550C00A368204698474FF02003EFF3118783F3ED
:10551C001188BFF36F8F0B48FFF730FD68B90A4A4B
:10552C000A490B485C2300F0D6F80649094800F0FC
:10553C00D2F805485C2100F0D9F90248FFF73CFD90
:10554C0070E700BFA807002062650000AD65000091
:10555C00A55F0000C2650000A4070020C80500205C
:10556C0081650000986500001400002070B54FF0B4
:10557C002003EFF3118683F31188BFF36F8F1B4861
:10558C00FFF7FCFC68B91A4A1A491B485C2300F067
:10559C00A2F81649194800F09EF815485C2100F055
:1055AC00A5F91248FFF708FDFCF79CFA144BD3E958
:1055BC00004524180D4845F10005FFF7EDFC68B9CE
:1055CC000B4A10490C48842300F085F807490E4813
:1055DC0000F081F80648842100F088F986F31188E0
:1055EC00BFF36F8F2046294670BD00BFA80700206F
:1055FC0062650000AD650000A55F0000C26500009B
:10560C00C80500208165000098650000F8B50F4DB5
:10561C000F4C104E2F46AC420CD90F490F48152396
:10562C00324600F058F80E4800F055F81521304677
:10563C0000F05CF9BC4201D30020F8BDD4E90112A2
:10564C00204600F006FB1834E5E700BF640100209B
:10565C0064010020D6760000F8760000A55F0000FB
:10566C007376000038B54FF4004140F2E734002562
:10567C00C1FB00454FF47A72002320462946FAF705
:10568C0027FDBDE83840FFF771BA034658B14268B0
:10569C0002F00302012A03D0032A04D1026812B1DA
:1056AC000020986070476FF015007047002070471D
:1056BC0030B58A680C68551C14B14B68934201DCF8
:1056CC008D6030BD013B934208BF00228D600CBF42
:1056DC00E254A054F5E70FB407B504A951F8040B34
:1056EC000191FBF7E5FA03B05DF804EB04B07047E9
:1056FC000CB407B504AB53F8042B0193FBF7E6FA93
:10570C0003B05DF804EB02B07047838B13F0070312
:10571C0005D10368002B0CBF002003207047022B1F
:10572C0005D1C38B002B14BF002004207047012B24
:10573C0005D10368002B0CBF00200520704700200A
:10574C0070472DE9F0410D4607461946281D904635
:10575C001E46FBF705F9044638B133464246294646
:10576C003846A446BDE8F0416047BDE8F08110B56D
:10577C000C4640B139B1081DFFF787FF28B9A36863
:10578C0033F0030301D06FF0150010BD38B50C4693
:10579C00054658B151B10B6843B14B6833B1202267
:1057AC00002100F09FF92C61002038BD6FF015002E
:1057BC00FBE7044608B5084611461A46A047FFF712
:1057CC000BFAFCF727FE836800EBC101B3F5004F21
:1057DC002CBF51F8220031F81200704700EBC101C8
:1057EC008068B0F5004F2CBF41F8223021F8123000
:1057FC00704708B50122FFF7E6FF400808BD836833
:10580C00B3F5004F00EBC10108D34B681AB143F05C
:10581C0001034B60704723F00103FAE74B881AB180
:10582C0043F001034B80704723F00103FAE7530068
:10583C000122FFF7D3BF8368B3F5004F2CBF0820BC
:10584C00042007310844C00870470A4608B50121F6
:10585C00FFF7F1FF0132121AB2FA82F0C0F11F0009
:10586C0008BD2DE9F04104460D46FFF7C2FFA368C1
:10587C00B3F5004F014601D3012835D02046FFF780
:10588C00E4FF04EB800216699EB9012303FA00F0D1
:10589C00E3680343E360294615612B460222204648
:1058AC00FFF79CFF032229462046BDE8F041FFF795
:1058BC0095BF022231462046FFF785FF02220346A0
:1058CC00074629462046FFF789FF3346032229461F
:1058DC002046FFF783FF032239462B462046FFF76D
:1058EC007DFF02223146DFE7BDE8F081404080F3C6
:1058FC0011884FF0040002DF7047704710B54FF06D
:10590C002003EFF3118283F31188BFF36F8F0368C9
:10591C0003F00704012C06D10160002082F31188EA
:10592C00BFF36F8F10BD03F0C0038B4214BF4FF059
:10593C00FF306FF00F00F1E74FF02003EFF311820F
:10594C0083F31188BFF36F8F036803F0C00343F038
:10595C000203036082F31188BFF36F8F7047C06836
:10596C00CBB200EB4310002110478022FBF790BD17
:10597C001046FFF737B90020FDF798BDF8B5C9B24E
:10598C000C24C5684C43064604F148008021284489
:10599C001746FFF7B3FF002808DB25447B682B6410
:1059AC00BB686B6473681B5998470020F8BD4FF0B7
:1059BC00FF30704708B5C36893F824308B4205DB81
:1059CC004068C9B2FDF7ECFE002008BD6FF0150071
:1059DC00FBE738B5446801F00103C3F109038A07FA
:1059EC002568DBB248BF03F0F703C5F80C35C36874
:1059FC00196A4FF47A720023C803490CFAF768FB52
:105A0C00C5F804052046FDF74DFE002038BD704753
:105A1C00FCF70AB908B5FFF7FBFF002008BD002111
:105A2C000120FCF7EFB901460068FCF7EBB908B5AB
:105A3C00FCF792FABDE80840FCF7D4BA01390346EA
:105A4C0011F8012F0AB91A70704703F8012BF7E708
:105A5C0070B5013905462C4642B111F8013F561E6E
:105A6C002BB92A4404F8013BA242FBD170BD05F8C6
:105A7C00013B3246EFE7431E013913F8012F11F8B1
:105A8C00010F824201D1002AF7D1101A7047F0B5EC
:105A9C0081EA0004A50703460BD0013B0A4491425E
:105AAC001BD1F0BD002AFCD011F8014B03F8014BBF
:105ABC00013A9C07F6D122F003041D1F96080F191A
:105ACC00B94205D16FF0030505FB06222344E4E738
